:020000040800F2
:10000000480C0020E1000008030100080501000879
:1000100000000000000000000000000000000000E0
:1000200000000000000000000000000007010008C0
:100030000000000000000000090100080B0100089A
:100040000D0100080D0100080D0100080D01000858
:100050000D0100080D0100080D0100080D01000848
:10006000000000000D0100080D0100080D0100084E
:100070000D0100080D0100080D010008000000003E
:100080000D0100080D010008000000000D0100082E
:100090000D0100080D0100080D0100080D01000808
:1000A0000D0100080D0100080D0100080D010008F8
:1000B0000D0100080000000000000000000000002A
:1000C0000D010008000000000D01000803488546EE
:1000D00000F088FB00480047E13B0008480C002086
:1000E0000B4802680B480240120C92020A4940F287
:1000F000000001C1121F002AFBD1084880470848B0
:100100000047FEE7FEE7FEE7FEE7FEE7FEE700004A
:10011000E0F7FF1F0000FFFF000000201922000889
:10012000CD0000080549064A08685043054A801872
:1001300008604008704701490860704700000020CF
:100140006D4EC64139300000024670B54A40D30FAB
:10015000DB0740002DD04A002AD0010E140E000209
:1001600012020919400A520A8418E5010446544350
:10017000000A120A2E045043A4194219200CC54348
:10018000AA18120C0125AD03521C521912047F3912
:10019000240400D0521C104301D44000491EC2B2B6
:1001A0000C06C0092018401C4008802A02D003E039
:1001B000002070BD40084000002900DA00201843EC
:1001C00070BD70B502464A40D50F40004A00ED07A9
:1001D00040085208002814D0002A12D0C40DD30DB4
:1001E00041020120C0055202490A520AE41A0918C4
:1001F00012187D34914201D3641C00E04900002CA8
:1002000001DA002070BD0023914201D3891A034313
:10021000400849000028F7D100290AD0914202D1B4
:100220000121C90705E0914201D2012101E001212C
:10023000C943E005C018401900F0E6F870BD0000A1
:10024000F0B50C465C4085B0E40FE40703944C0025
:100250000026640859009446490802460296224343
:1002600021D062460A431ED06200570D4A000E0399
:100270002303550D012402462C492405781B1B0B32
:10028000360B401823432643614600901C46501A03
:10029000B44103D30098401C009002E092180098EB
:1002A0005B41002803DA0020014605B0F0BD0020C4
:1002B000012109050746864611E064461D46141BC8
:1002C000B54106D36546521BB341744607430C4300
:1002D000A646CD0740084908284392185B410546C9
:1002E0000D43EAD11046184313D0604619465040DA
:1002F0007140084306D06046101AB34106D201226D
:10030000002306E000220123DB0702E00122D243A2
:100310005310009874460105381C6141029C039DEE
:100320000019694100F0B1F8BFE70000FD030000CB
:1003300010B500229623114600F06EF810BD410062
:1003400040020122400AD205090E80187F2901DAF5
:1003500000207047962903DC9622511AC840704746
:10036000963988407047F0B51FB40646002082B029
:1003700005464024019100901BE0019922460F465A
:10038000304600F030F8049A059B801A994110D34A
:1003900010461946224600F016F8361A8F4101978A
:1003A000224601200021009F00F00DF838184D4131
:1003B00000902046641E0028DFDC019B009829463F
:1003C000324607B0F0BD10B5202A04DB0146203AC2
:1003D0009140002010BD914020239C1A0346E34029
:1003E0001943904010BD10B5202A04DB0846203A7E
:1003F000D040002110BD0B46D340D0402024A21A8B
:1004000091400843194610BD002904DA401C4900F8
:1004100001D140084000704770B40024050C05D19C
:100420001024000402D1002921D01124050E01D18D
:1004300000020834050F01D10001241D850F01D1F0
:100440008000A41C002801DB4000641C002908D0A7
:1004500020252E1B0D46F540A14000D00121294347
:10046000084301061B1B000ADB1D02D5002070BCDF
:100470007047DB05181880180029F8DA401C49007D
:10048000F5D170BC40084000704710B5002B08DA69
:100490000024401C614192185B411A4301D140087D
:1004A000400010BDF0B51FB482B005460C0003D06B
:1004B000084603F0B7FF02E003F0B4FF2030024625
:1004C000009021462846FFF77EFF049B059A0446CC
:1004D0000F4618431143084314D0184610431BD04D
:1004E000009840210A1A18460599FFF77CFF054637
:1004F0000E46009A05990498FFF765FF084305D05A
:10050000012004E02046394607B0F0BD0020C117A5
:1005100005430E432C43374300990E986305401A58
:100520007905E40A00220C43FD0A0A3002D50020B6
:100530000146E9E70105101969410C9C0D9D001960
:100540006941FFF7A2FFDFE7F0B5074608465840CC
:1005500087B0C00F049048000E4659004008490873
:10056000BC1A884105D2384631461E4617460B460E
:1005700002465800400810434CD0300D039040050F
:100580005900400D490D0590401A0290402872DA3A
:1005900018030121000B09050843019004980092FB
:1005A000002805D001995242002088410092019014
:1005B000029840210A1A01990098FFF704FF0546A6
:1005C0000C466B4607CB00F044F9C0197141039A01
:1005D0000E0D0023D71756401A467A40164344D0D2
:1005E000049A002A2DD0029A012A039A15DC1205DA
:1005F000C01A914101263605001C7141D20F059E9B
:10060000D2070093019202962A462346FFF74AFF3B
:1006100007B0F0BD38463146FAE71605224A0F46C4
:10062000B218C01AB74101210905001C4F4100183A
:100630007F41114618187941E20F10436D1964414A
:1006400013E0E2076D0815436408C2071443039AD8
:1006500001261205C01A91413605001C7141CE07D2
:10066000400830434908C01851412A462346FFF745
:100670000CFFCDE7FFE7049801224000C117121AD2
:1006800000238B4104983146C417381AA141EEE784
:1006900030B40124E407634030BC55E730B4012492
:1006A000E407614030BC4FE70000E0FFF0B51FB445
:1006B00088B00B990998002448400999C00F490057
:1006C00049080991C0070B990090490049080B910E
:1006D00009990898A64608431CD00B990A98084324
:1006E00018D0099801244000420D4800410D099896
:1006F00024050003000B204309900B980003000B16
:1007000020430B9050181C494018002201901446B9
:10071000104605E0002001460DB0F0BD032801DAC7
:10072000034600E003239C46C11A0AAE0AE05F00BC
:1007300008ADED5B4F00F75B7D430027AA187C41B5
:10074000491C5B1E6145F2DD410004AB5A52210495
:10075000120C0A43240C401C0828DFDB019802908D
:100760000099704601910090059B049A079906989C
:10077000FFF798FED0E700000DFCFFFF4A000903D9
:100780000123090B1B0519430A4B10B5520D9A4260
:1007900002DA0020014610BD064B34339A4203DCD6
:1007A0009A1AFFF720FE10BD034BD218FFF70BFE7D
:1007B00010BD0000FF030000CDFBFFFF10B50029B6
:1007C00004DB0124E40740428C412146002B04DB7A
:1007D0001C460123DB075242A341994200D19042BB
:1007E00010BD00001CB5094800900948019005465D
:1007F0000126009C05E0E36807CC33430C3C984796
:100800001034AC42F7D3FFF765FC00008482000887
:10081000A482000870B50446002903D000202022DD
:10082000012310E0002801D00020C043C046C0468C
:100830000DE02546D5408D4205D30D469540641BFD
:100840001D46954040191546521E002DF1DC2146EB
:1008500070BD10B5202A06DBCB170846203A1041A0
:10086000C1170B4306E00B461341D0402024A21AC7
:1008700091400843194610BD80B582B01648FFF775
:100880005AFCFFE7154840F2E071009103F088FA46
:1008900040F22C1001F00EFE0099114803F080FA8E
:1008A00040F2F41002F0BEF80E480F4903F078FA57
:1008B000C82001F0D9FF0D480D4903F071FA40F24C
:1008C0009010019002F00AFD0A480B4903F068FA03
:1008D000019802F0B7FBD5E73930000074820008B8
:1008E0005C82000868820008E0FF00004B8200087C
:1008F000FFFF000055820008FF7F000010B58EB09A
:100900001E4803F001FA444803F0FEF94348019001
:10091000002104912822029202F0DDFF0198029B3F
:10092000049A022103F071F80198029B04990322B2
:10093000039203F0B1F81248069003F02DFB07A8CC
:10094000059003F063FC039B049A0599069844F212
:100950000004089440F20414079440F200740994CF
:100960000C9340F200230A930D920B9203F0B2FB1A
:10097000069803F067FA0EB010BDC0460C060000E2
:100980000030014080B58EB0224803F0BDF9224806
:1009900003F0BAF921480190002103914EF20002C0
:1009A000029202F098FF0198029B0222114603F086
:1009B0002CF80198029B0399032203F06DF8184864
:1009C000069003F0E9FA07A8049003F01FFC039ACD
:1009D00004990698089240F20413079340F20073BA
:1009E000059309930C9240F200230A9318230D9368
:1009F0000B9203F06FFB0599069803F03DFA0698F9
:100A000003F020FA069841F2000103F024FA0EB038
:100A100080BDC0460E07000012050000000400481B
:100A20000038004083B0014601A801700078083802
:100A300000906F2800D924E100998A0001A0801855
:100A40008746C04600F0DEB800F01BB900F019B9C7
:100A500000F017B900F015B900F013B900F011B9A2
:100A600000F00FB900F0D1B800F00BB900F009B9EF
:100A700000F007B900F005B900F003B900F001B9C2
:100A800000F0FFB800F0C4B800F0FBB800F0F9B80F
:100A900000F0F7B800F0F5B800F0BDB800F0F1B81C
:100AA00000F0EFB800F0BAB800F0EBB800F0E9B829
:100AB00000F0E7B800F0E5B800F0E3B800F0E1B806
:100AC00000F0DFB800F0DDB800F0ABB800F0D9B846
:100AD00000F0D7B800F0D5B800F0D3B800F0D1B826
:100AE00000F0CFB800F0A0B800F0CBB800F0C9B863
:100AF00000F0C7B800F0C5B800F0C3B800F0C1B846
:100B000000F0BFB800F093B800F0BBB800F0B9B87F
:100B100000F0B7B800F08EB800F0B3B800F0B1B88C
:100B200000F0AFB800F089B800F0ABB800F0A9B899
:100B300000F0A7B800F084B800F0A3B800F0A1B8A6
:100B400000F09FB800F07FB800F09BB800F099B8B3
:100B500000F097B800F095B800F093B800F091B8A5
:100B600000F08FB800F072B800F073B800F089B8E8
:100B700000F087B800F085B800F083B800F081B8C5
:100B800000F06AB800F07DB800F07BB800F067B8FC
:100B900000F077B800F075B800F073B800F071B8E5
:100BA00000F06FB800F05EB800F06BB800F069B804
:100BB00000F067B800F065B800F063B800F061B805
:100BC00000F05FB800F051B800F052B800F059B82A
:100BD00000F057B800F055B800F053B800F051B825
:100BE00000F04FB800F04DB800F04BB800F049B835
:100BF00000F047B800F045B800F043B800F03BB84B
:100C000000F03CB8354802903EE0334802903BE0AB
:100C10003048029038E02E48029035E02B48029090
:100C200032E0294802902FE0264802902CE0244828
:100C3000029029E02148029026E01F48029023E01C
:100C40001C48029020E01A4802901DE016480290CD
:100C50001AE01648029017E01348029014E0114879
:100C6000029011E00E4802900EE00C4802900BE05A
:100C70000948029008E00748029005E00448029005
:100C800002E017480290FFE7029803B07047C046A1
:100C90007D8100088B810008758100086E81000845
:100CA00092810008A08100082A820008D8810008EB
:100CB0009981000824820008DF810008B9810008BA
:100CC0005F810008D1810008E6810008B181000839
:100CD000A9810008C981000865810008C181000858
:100CE0003182000880B59EB001F036F99B4800784B
:100CF0009B490978884229D1FFE712A90020087092
:100D000015A90870FFE715A800789449097888426A
:100D100013DAFFE715A802789248805C9249895C53
:100D2000884204D0FFE712A90120087005E0FFE720
:100D30001598401C15A90870E5E712A8007820B99D
:100D4000FFE78A4802F024FC06E1FFE783480078C9
:100D50008349087015A900200870FFE715A80078DE
:100D60007E49097888420CDAFFE715A802787D48A9
:100D7000805C7D498854FFE71598401C15A90870D0
:100D8000ECE700200D9000F0CEF90D9820210191A4
:100D90000090774A18200A900421764B00F046FD17
:100DA0000D9810210C9101910090734A0E9224210C
:100DB000724B0F9300F03AFD68481090027870492A
:100DC00016A80B9003F01AFB0A990B9A0D98019143
:100DD0000090342140F2E07300F028FD0C990D984A
:100DE0000E9A0F9B019100904E2100F01FFD10986C
:100DF0000078B8B9FFE7202001900020099000900A
:100E0000644A18206E214FF6000300F00FFD099888
:100E1000102101910090604A14209621594B00F056
:100E200005FD94E015A900200870FFE715A80178DA
:100E30004A4802780020914208900DDAFFE715A891
:100E400001780120002206920A29079001DB06980A
:100E5000079007980890FFE70898C007002875D00A
:100E6000FFE7159814A9087015A801783D48405C63
:100E70001F2804DCFFE713A9424808801DE015A8DD
:100E800001783848405C4F2805DCFFE713A940F2A1
:100E9000E070088010E015A801783248405C77289F
:100EA00004DCFFE713A93348088004E013A94FF6D8
:100EB00000000880FFE7FFE7FFE715A8049001782E
:100EC00028480590425C304916A8039003F096FA32
:100ED000039A14A80078162141435E3113A80388B1
:100EE0001020019000200090042000F09FFC049945
:100EF00005980978405CFFF795FD119011980078EE
:100F000078B1FFE714A80078162141435E31119AA9
:100F1000102001900020009034201D4B00F086FC32
:100F20000EE014A80078162141435E311020019094
:100F300000200090154A3420104B00F077FCFFE7AA
:100F4000FFE71598401C15A908706FE7FFE740F20E
:100F5000E83002F01DFBFFE71EB080BD1A04002040
:100F6000040000201B04002010040020B80B000027
:100F700018820008FF7F00004681000830840000CE
:100F800032810008E0FF0000EE81000810820008B6
:100F9000FFFF0000F5810008FF81000880B58EB0DA
:100FA000362000F0D3FA0020019000F024FB3A2014
:100FB00000F0CCFA052000F01EFBB22000F0C6FACB
:100FC0000C20069000F017FB069800F014FB019827
:100FD00000F011FB3320029000F00DFB029800F0AE
:100FE0000AFBB72000F0B2FA352000F004FBBB206A
:100FF00000F0ACFA192000F0FEFAC02000F0A6FACA
:101000002C20089000F0F7FAC22000F09FFA01208F
:1010100000F0F1FAC32000F099FA122000F0EBFA88
:10102000C42000F093FA20200B9000F0E4FAC620D0
:1010300000F08CFA0F2000F0DEFAD020049000F0CF
:1010400085FAA42000F0D7FAA12000F0D4FAE0201D
:1010500000F07CFA049800F0CEFA0420059000F02D
:10106000CAFA0D20039000F0C6FA11200D9000F08E
:10107000C2FA1320079000F0BEFA2B2000F0BBFA52
:101080003F20099000F0B7FA542000F0B4FA4C2049
:1010900000F0B1FA182000F0AEFA039800F0ABFAB5
:1010A0000B2000F0A8FA1F200A9000F0A4FA2320D9
:1010B0000C9000F0A0FAE12000F048FA049800F04B
:1010C0009AFA059800F097FA069800F094FA0D98AD
:1010D00000F091FA079800F08EFA089800F08BFA69
:1010E000099800F088FA442000F085FA512000F0B9
:1010F00082FA2F2000F07FFA0A9800F07CFA0A9812
:1011000000F079FA0B9800F076FA0C9800F073FA78
:10111000212000F01BFA0D9800F018FA292000F0A9
:1011200015FA0EB080BD80B584B003A908800021F7
:101130000091EF2308461A4600F08CFD009802A9A2
:101140000880FFE702A80088EF2819DCFFE701A963
:1011500000200880FFE701A80088EF280ADCFFE7ED
:1011600003A8008800F060FAFFE70198401C01A97D
:101170000880F0E7FFE70298401C02A90880E1E739
:1011800004B080BD70B598B01C460892024608981D
:101190001C9B17AB1A8016AA118015A9088014A8E9
:1011A000048013AD01242C70D74C2678179DAD19FF
:1011B0001D802578159C64190C80D44C2678169DCA
:1011C000AD1915802578149C6419048009881B8842
:1011D000C91A491C00881288801A401C4843119083
:1011E000119808B9FFE7A3E017A8407809A906916C
:1011F00008701798487015A8407888701598C870BE
:101200002A2000F0A3F906980421079100F0C6F9FE
:10121000069916A8407808701698487014A8407867
:1012200088701498C8702B2000F090F906980799E0
:1012300000F0B4F92C2000F089F9FFE713A800783A
:1012400000286DD0FFE71198B149884208D3FFE725
:1012500011984FF6FE71401A1190AE48129005E0B9
:1012600013A90020087011981290FFE7AA48049073
:1012700002F0CAFD0920C00648F2000100220592D2
:1012800002F099FB049840F6007102F0F5FD0AA8FF
:10129000029002F009FB40F2005002F035FD0220FE
:1012A000039002F019FA02990398059B9B4A0A924F
:1012B0001C9A0C9201228A7640F200140B9440F2A0
:1012C00000440D9443F200040F94129C0E940B768C
:1012D0004A7602F04BFA039802F0F0F9039802F014
:1012E000D1FA039802F0DCF9049802F0ABFD0498FF
:1012F000059902F092FDFFE70221084602F01AFA72
:1013000008B9FFE7F8E78448019002F07DFD0198F5
:1013100040F2007102F0B0FD019802F093FD8DE7FC
:101320000920C00648F20001012202F044FBFFE759
:1013300018B070BD70B59EB005931346059A06911E
:1013400005460698229C1DA90A910D801CAD0C959E
:1013500028801BA8099003801AAB0B931A8019AA46
:10136000148018AE012434700DAC0026268052780B
:101370002270199A6270644A16781D9CA4190C8018
:1013800014781B9A12190280604A16781C9CA419C2
:101390002C8014781A9A12191A804A780EA907918B
:1013A0000A701D9A4A70407888701B98C8702A206D
:1013B00000F0CCF807980421089100F0EFF80799A5
:1013C0000B980C9A52780A701C9A4A704078887070
:1013D0001A98C8702B2000F0B9F80798089900F007
:1013E000DDF82C2000F0B2F809990A9B0B980C9AB2
:1013F00009881B88C91A491C00881288801A401C59
:1014000048431690FFE718A80078002871D0FFE73E
:1014100016983F49884208D3FFE716984FF6FE71A9
:10142000401A16903B48179005E018A90020087054
:1014300016981790FFE7179808B9FFE761E036485C
:10144000039002F0E1FC0920C00648F200010022EE
:10145000049202F0B0FA039840F6007102F00CFD1D
:101460000FA8019002F020FA40F2005002F04CFC6C
:101470000220029002F030F901990298049A274B59
:101480000F9319AB119301238B7640F20013109345
:1014900040F20043129343F200031493179B1393FB
:1014A0000A764A7602F062F9029802F007F9029889
:1014B00002F0E8F9029802F0F3F8039802F0C2FC97
:1014C0000398049902F0A9FCFFE70221084602F004
:1014D00031F908B9FFE7F8E70F48009002F094FCF3
:1014E000009840F2007102F0C7FC009802F0AAFCDC
:1014F00089E70920C00648F20001012202F05BFAE8
:10150000FFE71EB070BDC0463C0800203D0800202B
:10151000FFFF0000FEFF0000003001400C300140E2
:1015200080B584B00B4603A9088002A8038001ABF4
:1015300000931A800A8803881046194600F08AFB37
:101540000098008800F070F804B080BD80B588B0C5
:1015500007A901910870EE4804901021059100221E
:10156000009202F028FA009A0920C006029048F280
:101570000001039102F01FFA0198007800F0A2FB2D
:10158000029803990122069202F015FA049805992F
:10159000069A02F010FA08B080BDC04680B584B04B
:1015A000039002A801700920C00648F20001002241
:1015B000009202F000FA009801A90870FFE701A864
:1015C000007802A9097888420CDAFFE7039801A99C
:1015D0000978405C00F076FBFFE70198401C01A908
:1015E0000870ECE70920C00648F20001012202F071
:1015F000E2F904B080BD80B584B003A90091087001
:101600000920C006019048F200010291002202F078
:10161000D2F90098007800F055FB01980299012258
:1016200002F0C9F904B080BD80B586B005A901916A
:1016300008800920C006029048F2000103910022B0
:1016400002F0B9F90198407800F03CFB019800786D
:1016500000F038FB02980399012202F0ACF906B0C1
:1016600080BD000070B594B00C46054619991898D5
:1016700013AE358012AD2C8011AC0194227010AAEB
:1016800013800FAA10800EA8029001700AAA0021F0
:1016900003911170139906AA1180007841080CA8D3
:1016A00001700178C80804904907401C059009B9E9
:1016B000049805900398019A0299059B097859436B
:1016C00008AB198011992039117007A9088009A960
:1016D0000880FFE709A8008808A90988884200DB7C
:1016E00085E00EA800780C280CD1FFE711A800783F
:1016F0000C2141434C48401809A90988405C0DA9B8
:10170000087034E00EA8007810280BD1FFE711A86C
:10171000007801014348401809A90988405C0DA9D7
:10172000087023E00EA8007818280CD1FFE711A854
:101730000078302141433A48401809A90988405CA3
:101740000DA9087011E00EA8007820280BD1FFE742
:1017500011A8007881013148401809A90988405C26
:101760000DA9087000E055E0FFE7FFE7FFE70BA9D0
:1017700000200870FFE70BA80078072831DCFFE79E
:101780000DA800780BA90978C840C00738B1FFE759
:10179000109807A909884A001F49885206E00F9847
:1017A00007A909884A001C498852FFE70798401C8E
:1017B00007A908800A98411C0AA8017000780CA9A2
:1017C0000978B0FBF1F25143401A20B9FFE70AA9AA
:1017D0000020087005E0FFE70B98401C0BA908707B
:1017E000C9E7FFE70998401C09A9088072E713A818
:1017F000008812A909880CAA12788218521E0EAB12
:101800001B78CB185B1E044C009492B29BB2FFF77E
:10181000B9FCFFE714B070BD100000205A69000841
:101820008A5700089A510008264D000870B58AB002
:101830000C4605460F980E9909AE358008AD2C80F0
:10184000079206AA138005AA118004A90870FFE771
:1018500007980078E8B1FFE709A80390008808A975
:101860000988079A127806AB1B8805AC248804AD5A
:1018700002952D7801950094FFF7F4FE02980399E4
:10188000007842080998801808800798401C079043
:10189000DEE70AB070BD000080B584B01B4802F0DE
:1018A00033FA79480290012103910022009241F617
:1018B0000043019302F0A9F80099019B02980322CA
:1018C00002F0EAF80199029802F06DF80298039A82
:1018D00040F2004102F06FF80298039A40F60001CE
:1018E00002F069F80298039A41F2000102F063F8ED
:1018F00000F044F80749088000F072F806490860D3
:10190000064800F099F804B080BDC04612050000FA
:101910000004004826040020280400202C04002095
:1019200080B588B007900691059204A80190002226
:1019300002705548029041F20001039102F03BF819
:10194000032000F0D5F907A80090807800F0D0F9C6
:101950000098407800F0CCF90098007800F0C8F9C1
:1019600001980699059A022300F0E2F9029803997A
:10197000012202F020F808B080BDC04610B586B044
:101980004148039041F2000102910022009202F0CE
:1019900012F8902000F0ACF9009800F0A9F9009836
:1019A00000F0A6F9009800F0A3F9FF20019000F0E4
:1019B0009FF901460198090205AA0492118000F0DE
:1019C00097F90299049B04460398059A22431A80CA
:1019D000012201F0F0FF0498008806B010BDC04657
:1019E00080B584B02848029041F2000101910022A4
:1019F00001F0E1FF9F2000F07BF9FF20009000F054
:101A000077F9014600980904039100F071F9014645
:101A100000980A0203991143039100F069F90199B2
:101A200003460298039A1A430392012201F0C3FF6E
:101A3000039804B080BDC04680B586B0059004A868
:101A400001900022009202700F48029041F20001C2
:101A5000039101F0B0FF4B2000F04AF9009800F02C
:101A600047F9009800F044F9009800F041F9019816
:101A700005991022022300F05BF9029803990122D4
:101A800001F099FF06B080BD0004004880B58AB01F
:101A9000002009900890FFE76949086805900598BB
:101AA000F0229043059005988022104305900598F8
:101AB000086000200690FFE706987F2805D8FFE71A
:101AC000FFE70698401C0690F6E75D490868059018
:101AD0000598F022904305900598902210430590B8
:101AE0000598086000200690FFE706987F2805D833
:101AF000FFE7FFE70698401C0690F6E7FFE70020A7
:101B000002F03AF9642000F0C2FC02F0B3F84D494B
:101B10000868012210430860FFE70998401C0990FB
:101B200048480068022108400890FFE70899002013
:101B3000029041B9FFE7099840F20051401A411E56
:101B400088410290FFE70298C0070028E5D1FFE72F
:101B50003C4800688007002802D4FFE7FFE7FEE763
:101B6000394908680222104305229043086034492D
:101B700001910868902210430860086808600868AE
:101B800008600868314A104008600868304A10430D
:101B900008602C4908680122120610430860FFE71C
:101BA000284800688001002801D4FFE7F8E72449AD
:101BB000086807900798032290430790079802222D
:101BC0001043079007980860FFE71D48006800076A
:101BD000002801D4FFE7F8E7FFE700200490FFE7C3
:101BE00004987F2805D8FFE7FFE70498401C04907D
:101BF000F6E71349086803900398F0229043039096
:101C000003988022104303900398086000200490FA
:101C1000FFE704987F2805D8FFE7FFE70498401CFA
:101C20000490F6E70649086803900398F022904371
:101C300003900398039003980860FFE70AB080BD03
:101C4000041002400010024000200240FFFFC2F7D3
:101C50000000040810B586B005AC208004A80180FF
:101C600003A8028002A803802A20FFF76FFC0598D2
:101C7000124900910978401880B2FFF7D5FC00990D
:101C800003980978401880B2FFF7CEFC2B20FFF7AD
:101C90005DFC04980A4901910978401880B2FFF769
:101CA000C3FC019902980978401880B2FFF7BCFC88
:101CB0002C20FFF74BFC06B010BDC0463C080020AE
:101CC0003D08002080B582B001A90870FFE70748F1
:101CD000022102F087F908B9FFE7F8E701A80178C7
:101CE000024802F033F902B080BDC0460030014026
:101CF00080B582B001A90870FFE75248022102F0C6
:101D000071F908B9FFE7F8E701A801784D4802F03A
:101D10001DF9FFE74B48012102F064F908B9FFE71C
:101D2000F8E7484802F0EAF8C0B202B080BDC04609
:101D300010B592B0119010910F920EA806900370FA
:101D400007A8059001F0B0FD40F2005001F0DCFF63
:101D5000042001F0C1FC059A0698394907911199B0
:101D6000099101219176002108910A9143F2000323
:101D70000C930F9B0B9311760078022804D1FFE798
:101D800007A90020487603E007A901204876FFE76D
:101D90000420039007A9049101F0E8FC039801F0E6
:101DA0008DFC039801F06EFD039801F079FC03208F
:101DB00001F092FC049922480790109809900020A5
:101DC000887608900A9043F200020C920F9A0B92C8
:101DD00008760EA80078012804D1FFE707A90020A3
:101DE000487603E007A901204876FFE70320019029
:101DF00007A901F0BBFC019801F060FC019801F01B
:101E000041FD019801F04CFC0E480290012102F0C6
:101E100004F80298002102F000F8FFE703200221F5
:101E200001F088FC08B9FFE7F8E7FFE7042002218A
:101E300001F080FC08B9FFE7F8E712B010BDC0461A
:101E40000C3800400038004080B58AB0012008906E
:101E500000F0C6F9089AEF48079040F2002101F01F
:101E6000AAFD0798089A40F2001101F0A4FD09A903
:101E700000200870FFE709A80078082822DCFFE7A7
:101E8000E44840F2002101F0A8FD08B1FFE719E0A5
:101E9000E048049040F200110591002201F08BFD12
:101EA0000F20069001F0AEFB04980599012201F085
:101EB00082FD069801F0A6FBFFE70998401C09A9DE
:101EC0000870D8E7D348019040F200210291002227
:101ED00001F071FD0F20009001F094FB019840F299
:101EE00000110122039201F066FD009801F08AFBC7
:101EF00001980299039A01F05EFD0AB080BDC046C8
:101F000080B584B0134801F0FFFEC2480290012260
:101F1000039240F200330193114601F076FD019BDC
:101F200002980021032201F0B7FD0199029801F007
:101F300032FD0298039A40F2002101F03CFD029824
:101F4000039A40F2001101F036FD00F005F804B0EC
:101F500080BDC0461205000080B582B0FFF774FF57
:101F600029490020087001A908200870FFE701A88E
:101F70000078772846DCFFE701A8007878B1FFE712
:101F800001A8007804280AD0FFE701A800780628F5
:101F900005D0FFE701A80078782801D1FFE72CE001
:101FA000694600200870FFE768460078022823DCB5
:101FB000FFE700F07BF801984006000E00F028F8DB
:101FC00000F0CEF888B9FFE700F0A0F80E480078DE
:101FD000092809DCFFE701980B490B780B4AD0541C
:101FE0000878401C0870FFE706E000F08FF80098C2
:101FF000401C69460870D7E7FFE70198401C01A91B
:102000000870B4E702B080BD1A0400201B04002051
:1020100080B586B005A90870012000F0E1F87D4880
:1020200040F200110022039201F0C5FC039804A9BC
:102030000870FFE704A80078072834DCFFE705A84C
:102040000078C00938B1FFE7724840F20021012250
:1020500001F0B1FC06E06F4840F20021002201F0DF
:10206000AAFCFFE70598400005A90870052001F0CB
:10207000C9FAFB48009040F200110191012201F0E1
:102080009AFC0F20029001F0BDFA009801990022FD
:1020900001F091FC029801F0B5FAFFE70498401CAA
:1020A00004A90870C6E706B080BDC04680B586B0FA
:1020B0000F20029001F0A6FA0120009000F090F8A5
:1020C000009AE748039040F20021019101F073FC6F
:1020D000009A039840F20011049101F06CFC029800
:1020E00001F090FA019903980022059201F063FC37
:1020F000029801F087FA03980499059A01F05BFCB5
:10210000052001F07FFA06B080BDC04680B586B0DC
:102110000120059000F064F8D148039040F20021BE
:1021200004910022009201F046FC009A039840F2CC
:102130000011019101F03FFC0F20029001F062FAC2
:1021400001990398059A01F036FC029801F05AFAB9
:1021500003980499059A01F02EFC06B080BDC04694
:1021600080B586B0002000F03BF8052001F04AFA67
:10217000BB48049040F20011012201F01CFC0F202A
:1021800001F040FA049840F2002101F026FC88B1E9
:10219000FFE70520039001F035FAB14840F2001145
:1021A000002201F008FC039801F02CFA05A9012097
:1021B000087011E00520019001F024FAA84840F2CF
:1021C00000110022029201F0F6FB019801F01AFAC8
:1021D000029805A90870FFE705A8007806B080BD41
:1021E00080B582B0014601A80170007840B1FFE7D8
:1021F0009B48012240F20023114601F006FC07E053
:1022000097480021012240F2002301F0FEFBFFE786
:1022100002B080BD0004004880B586B0424908681D
:10222000012210430860FFE73F480068800700284C
:1022300001D4FFE7F8E73D4800680C210840082872
:1022400035D1FFE7FFE73949086804900498F02288
:1022500090430490049880221043049004980860EE
:1022600000200590FFE705987F2805D8FFE7FFE7E6
:102270000598401C0590F6E72C49086804900498DE
:10228000F022904304900498902210430490049804
:10229000086000200590FFE705987F2805D8FFE734
:1022A000FFE70598401C0590F6E7FFE7FFE71F49A9
:1022B00001910868032290430860642000F0D4F87C
:1022C0000199194A10681A4B184010600868194A99
:1022D000104008600868184A1040086017490868EC
:1022E0000F22904308601649086840F20312904399
:1022F0000860086801220292130498430860086885
:10230000D307984308600F490868904308600E4956
:1023100000200390086002F037F802980399C00685
:1023200001F096FC06B080BD00100240041002408F
:10233000FFFFF2FE0C00FF08FFFFC2772C100240E7
:1023400030100240341002400810024080B58CB0BA
:10235000404801F0D9FC404801F0D6FC3F4801F06C
:10236000D3FC0920C0060A9001210B91002208929B
:10237000FE23009301F049FB009B08990A98032271
:10238000039201F089FB00990A9801F004FB089A76
:102390000A980B9949F60003019301F036FB019B63
:1023A000039A08990A9801F077FB01990A9801F0BD
:1023B000F2FA089A0B992A4807901023029301F029
:1023C00024FB029B039A0798089901F065FB029988
:1023D000079801F0E0FA089A0B9922480590C0236B
:1023E000049301F012FB039A049B08990A9801F0E8
:1023F00053FB05988021069101F0CDFA05980699C6
:102400000B9A01F0D8FA0A980B9A48F2000101F0F1
:10241000D2FA07980B9A082101F0CDFA089A0A9887
:1024200041F20001099101F0C6FA642001F0B0F810
:1024300009990A980B9A01F0BEFAC82001F0A8F891
:10244000FEF7ACFD0A980B9A40F6000101F0B3FAD2
:102450000CB080BD1105000012050000160500003B
:10246000000400480014004882B001900020009051
:10247000FFE70098019A0A215143884205D2FFE7FD
:10248000FFE70098401C0090F3E702B0704782B06D
:10249000019000200090FFE70098019A0A21514323
:1024A000884205D2FFE7FFE70098401C0090F3E761
:1024B00002B07047F0B5A7B026A9088013A9002084
:1024C0000880FFE713A80088052853DCFFE713A85E
:1024D00001880324B1FBF4F322465A438A1A92007E
:1024E00008320C230A934B4314A9CB181A8107888E
:1024F00025237B43C825B3FBF5F22E4656430A9AA3
:102500009B1B143316467E438B5306883523734337
:10251000B3FBF5F77D435B1B1433154675434D192B
:102520006B800688B6FBF4F523466B43F31A9B1CBD
:10253000154675434D19AB8005886B1CB3FBF4F64B
:1025400074431B1B9B1C14466C430C19E3800388CB
:102550005800B0FBF2F514466C43001B4400C14820
:10256000005B5A4389184881FFE71398401C13A960
:102570000880A7E700200990FEF7D5FD099812A969
:102580000880FFE712A8008826A90988884200DB96
:1025900066E113A900200880FFE713A8008805283A
:1025A00000DDC7E013AC21880C230593184648438F
:1025B00014AA06921018018911A808900180218898
:1025C0004B43D118D25E00250795465F901B02232E
:1025D000CB5E991B92199B19009580B292B289B279
:1025E0009BB2FEF7A7FE059B0698079A08992588D7
:1025F0001E466E438519AF88855BED198553268885
:102600001D4675434619F7887588ED19758024882D
:102610006343C05E895E88420FDCFFE7119B13AA0B
:1026200010880C210C46444314A8035312885143CC
:102630004118888840428880FFE713A800880C2151
:10264000414314A8405E002211A98A5EEF21891A35
:10265000884211DBFFE71199EF20431A13AA108873
:102660000C210C46444314A80353128851434118CB
:10267000888840428880FFE713A800880C214143E6
:1026800014A840180221405E002211A9895E8842E8
:1026900010DCFFE7119B13AA10880C210C46444361
:1026A00014A804196380128851434118C888404215
:1026B000C880FFE713A800880C21414314A84018E4
:1026C0000221405E002211A98A5EEF21891A884208
:1026D00012DBFFE71199EF20431A13AA10880C218F
:1026E0000C46444314A804196380128851434118CE
:1026F000C8884042C880FFE713A800880C214143E6
:1027000014A84418425E002111A8455E501B022106
:10271000635E591B52195B196489009480B292B2AE
:1027200089B29BB2FEF706FEFFE71398401C13A97F
:10273000088032E710A900200880FFE7002110A8D8
:10274000405E042800DD82E01098401C0FA908803C
:10275000FFE700210FA8405E052872DCFFE700229A
:10276000049210A98B5E0C252846584314AC205ABD
:102770000FAEB75E2B467B43E35AC31A0EA8038005
:102780008F5E2B467B43E3185B88B25E2F46574330
:10279000049AE7197F88DF1B0DAB1F808F5E2946E7
:1027A000794361180989B65E7543641924890C1947
:1027B0000CA90C80805E40439B5E5B43C018895E21
:1027C0004943884237DAFFE70024019410AD285FBF
:1027D0000C2202921146414314A8039041188988A3
:1027E0000BAE31800FAB1F5F1146794340188088D4
:1027F000295F17464F430399C91988800B98195FC1
:1028000017464F430399CF19B8802F5F104678437E
:102810000818C08830801E5F104670430818C088B2
:102820002E5F154675434D19E8800B981B5F5A4380
:102830008918C880FFE7FFE70F98401C0FA90880A0
:1028400087E7FFE71098401C10A9088076E714205E
:1028500000F09EFEFFE71298401C12A9088091E646
:1028600027B0F0BD1A81000810B58AB009A9088008
:1028700006A90020088008A90880FFE708A80088AA
:1028800009A90988884200DBCAE007A9002008805E
:10289000FFE707A80088EF2800DDAEE007A8008862
:1028A00006A90988401840F26811B0FBF1F25143C3
:1028B000411A02A8018000883B280FDCFFE705A928
:1028C000FF20088002A9098848433C21B0FBF1F0B1
:1028D00004A9088003A90020088070E002A80088ED
:1028E000772812DCFFE702A801887820421AFF202F
:1028F000014651433C2291FBF2F105AA118004A943
:10290000088003A90020088058E002A80088B328A6
:1029100010DCFFE705A90020088004A9FF2008803B
:1029200002A90988783948433C2190FBF1F003A9BA
:10293000088042E002A80088EF2812DCFFE705A922
:102940000020088002A80188F020421AFF200146DA
:1029500051433C2291FBF2F104AA118003A90880A3
:102960002AE002A8008840F22B11884211DCFFE720
:1029700002A80288F03AFF20014651433C2291FB15
:10298000F2F105AA118004AA0021118003A9088090
:1029900011E005A9FF20088004AA0021118002A9E6
:1029A0000A8840F26811891A48433C2190FBF1F0F3
:1029B00003A90880FFE7FFE7FFE7FFE7FFE707A8B6
:1029C0000188481C05AA1288F8231A40120204AB99
:1029D0001B88FC242340DB00D21803AB1B88DB08D8
:1029E0001A43009283B20020EF22FEF7A3FCFFE718
:1029F0000798801C07A908804BE706A90888C01C17
:102A000040F26812B0FBF2F35A43801A0880142097
:102A100000F0BEFDFFE70898401C08A908802DE7DC
:102A20000AB010BD70B5BEB03DA908803BA900201A
:102A30000880FEF778FB3AA91E200880FFE70021F6
:102A40003AA8405E6E285DDCFFE739A900200880C7
:102A5000FFE7002139A8405E40F2671188424BDC55
:102A6000FFE700211B9139A81890405E01F059F84A
:102A70001B99034618983AAA1992525E5A4340F29B
:102A8000E8331A9392FBF3F2783238AB1C931A8036
:102A9000405E01F051F8199A1A9B1B9904461C9844
:102AA000525E624392FBF3F2783237AB1A80405E9B
:102AB00000281BD4FFE7002138A8405EEF2815DC72
:102AC000FFE7002137A8405E00280FD4FFE7002170
:102AD00037A8405EEF2809DCFFE738A8008837A94F
:102AE000098840F24012FEF71BFDFFE7FFE7399827
:102AF000001D39A90880ACE7FFE73A9828303AA9C9
:102B000008809CE740F2E0701490009075201590CA
:102B10007B221792782316931946FEF70BFC149824
:102B20001599169A179B00901046FEF703FC3CA9D6
:102B300000200880FFE73CA800883DA9098888425A
:102B400000DB71E23B9833AA108000211291505EA5
:102B500040F26513C01840F2681390FBF3F51C4671
:102B60006C43041B32A813900480545E40F2661537
:102B7000641994FBF3F61D467543641B31AD2C803C
:102B8000525E40F26714121992FBF3F46343D21AB7
:102B900030AB1A80405E00F0C4FF129902461398D1
:102BA0002FAB1A80405E00F0C7FF2EA908802DA928
:102BB00004200880FFE700212DA8405E6E283ADC43
:102BC000FFE700212FA8435E2DAA505E584340F234
:102BD000E83390FBF3F478342CA804802EAC645EC8
:102BE000525E624392FBF3F278322BAB1A80405E66
:102BF00000281AD4FFE700212CA8405EEF2814DC3F
:102C0000FFE700212BA8405E00280ED4FFE700213B
:102C10002BA8405EEF2808DCFFE72CA800882BA932
:102C200009880022FEF77CFCFFE7FFE72D98001DD6
:102C30002DA90880BFE70021109131A81190405EB6
:102C400000F06FFF1099024611982FAB1A80405E7A
:102C500000F072FF2EA908802DA904200880FFE74C
:102C600000212DA8405E6E283ADCFFE700212FA846
:102C7000435E2DAA505E584340F2E83390FBF3F4D4
:102C800078342AA804802EAC645E525E624392FBC4
:102C9000F3F2783229AB1A80405E00281AD4FFE79D
:102CA00000212AA8405EEF2814DCFFE7002129A8B4
:102CB000405E00280ED4FFE7002129A8405EEF28DF
:102CC00008DCFFE72AA8008829A909884022FEF726
:102CD00027FCFFE7FFE72D98001D2DA90880BFE71F
:102CE00000210E9130A80F90405E00F01AFF0E995F
:102CF00002460F982FAB1A80405E00F01DFF2EA9F0
:102D000008802DA904200880FFE700212DA8405E3F
:102D10006E283ADCFFE700212FA8435E2DAA505E03
:102D2000584340F2E83390FBF3F4783428A8048049
:102D30002EAC645E525E624392FBF3F2783227ABB4
:102D40001A80405E00281AD4FFE7002128A8405EC0
:102D5000EF2814DCFFE7002127A8405E00280ED4EE
:102D6000FFE7002127A8405EEF2808DCFFE728A83E
:102D7000008827A90988A022FEF7D2FBFFE7FFE71A
:102D80002D98001D2DA90880BFE700210C913BA8BC
:102D90000D90405E00F0C5FE0C9902460D9836ABD2
:102DA0001A80405E00F0C8FE35A9088034A90420CE
:102DB0000880FFE7002134A8405E6E283BDCFFE777
:102DC000002136A8435E34AA505E584340F2E833EF
:102DD00090FBF3F4783426A8048035AC645E525E30
:102DE000624392FBF3F2783225AB1A80405E0028F2
:102DF0001BD4FFE7002126A8405EEF2815DCFFE783
:102E0000002125A8405E00280FD4FFE7002125A857
:102E1000405EEF2809DCFFE726A8008825A909887D
:102E200040F2E072FEF77CFBFFE7FFE73498C01C3E
:102E300034A90880BEE73CA801887C4848437C4907
:102E400040180221C8417B49884266D8FFE73CA868
:102E50000288072151435022B1FBF2F35A43891AE9
:102E60000F3124AA0892118001880D20484340F2B6
:102E70006811B0FBF1F25143411A23A80790018079
:102E800000210A91405E00F04CFE089A0A99034620
:102E90000798525E5A4340F2E833099392FBF3F2EB
:102EA000783222AB0B931A80405E00F045FE089A00
:102EB000099B0A9904460B98525E624392FBF3F217
:102EC000783221AB1A80405E022825DBFFE7002123
:102ED00022A8405EED281FDCFFE7002121A8405E0C
:102EE000022819DBFFE7002121A8405EED2813DC52
:102EF000FFE7002322A8C25E901E21A9CB5E991E87
:102F0000921C9B1C4FF60004009480B289B292B2CE
:102F10009BB2FEF70FFAFFE7FFE73CA8018846489F
:102F20004843464940180221C8414549884268D86B
:102F3000FFE720A91E200880FFE7002120A8405EAF
:102F40006E285DDCFFE71FA900200880FFE7002155
:102F50001FA8405E40F2671188424BDCFFE700216A
:102F600005911FA80290405E00F0DBFD0599034625
:102F7000029820AA0392525E5A4340F2E833049327
:102F800092FBF3F278321EAB06931A80405E00F09B
:102F9000D3FD039A049B059904460698525E62434A
:102FA00092FBF3F278321DAB1A80405E00281BD4EE
:102FB000FFE700211EA8405EEF2815DCFFE7002197
:102FC0001DA8405E00280FD4FFE700211DA8405E29
:102FD000EF2809DCFFE71EA800881DA9098840F238
:102FE0004012FEF79DFAFFE7FFE71F98001D1FA99B
:102FF0000880ACE7FFE72098283020A908809CE7EC
:10300000FFE73BA90888801C40F26812B0FBF2F38E
:103010005A43801A08800F2000F0BAFAFFE73C9864
:10302000401C3CA9088086E53EB070BDCDCCCCCC20
:1030300098999919CCCCCC0CEFEEEEEE88888808E4
:1030400044444404B0B59EB01DA9088017A90020CF
:103050000C9008801B901A9019901890FEF763F856
:103060000C981CA90880FFE71CA800881DA90988E6
:10307000884200DB29E11CA801889548484395490E
:1030800040180221C8419449884211D8FFE717A986
:10309000088843001AAA0420D0520888430018AABE
:1030A0000120D0521798401C032210400880FFE7EF
:1030B00016A900200880FFE7002116A8405E03281B
:1030C00000DDF1E0002116A8405E410018A8405E36
:1030D000002801DCFFE7E2E0002116A8405E420084
:1030E0001AA8825A15A80280159B7822D31A14AC0C
:1030F0002380159BD21A13AB1A80159A783212AB23
:103100001A80159A783211AB1A80405E06283FDB90
:10311000FFE715990EA8099001801599C91E0DAAFF
:10312000118000220B92815E78200A90401A78313B
:1031300000928AB283B218461946FEF7FBF8099945
:103140000A980B9A895E401A7831009280B28BB24D
:1031500019461A46FEF7EEF809980A990B9A805E0E
:10316000091A783000928AB283B210461146FEF7EF
:10317000E1F809980A990B9A835E18467830C91AC3
:10318000009289B283B218461A46FEF7D3F8FFE7D9
:10319000002116A8405E410018A8405E3D2804DBCF
:1031A000FFE710A9002008800AE0002116A8405E71
:1031B000410018A8415A3C20401A10A90880FFE796
:1031C00010A80088FC2201461140C9000891400067
:1031D000FF2803DDFFE7FF20079004E010A8008828
:1031E00080080790FFE70898079908430FA908800F
:1031F00010A80088012836DBFFE714A80290008899
:1032000013A904910B8812A903910A880FA90691AA
:10321000098800911946FEF78DF80298039A0699DD
:10322000008811AB05931B88128809880091194604
:10323000FEF780F8029A0499059B0698128809887F
:103240001B88008800901046FEF774F8039A0499D2
:10325000059B0698128809881B88008800901046F4
:10326000FEF768F8FFE7002216A9885E44001AA856
:10327000035BDB1C03538B5E5D0018AC635B5B1C64
:103280006353895E4900405EAB2807DBFFE70020FF
:1032900016A9095E4A0018A98852FFE7FFE71698A9
:1032A000401C16A9088007E7B748009076217A23CA
:1032B00008461A46FEF73EF8192000F069F9FFE7C4
:1032C0001C98401C1CA90880CEE61EB0B0BDC046AC
:1032D000CDCCCCCC98999919CCCCCC0C10B5F8B0FD
:1032E00077A9088011A900200880FFE711A80088AD
:1032F00031283FDCFFE7FCF715FFF021079190FB39
:10330000F1F25143401A11A909910988CA0013A981
:103310000A918852FCF706FF079B099A0A9990FBCD
:10332000F3F46343C01A1288D20089184880FCF76E
:10333000F9FE099A0A99C3179B0FC318032408942E
:10334000A343C01A401C1288D20089188880FCF759
:10335000E9FE089B099A0A9990FBF3F46343C01AAB
:103360001288D2008918C880FFE71198401C11A963
:103370000880BBE700200690FDF7D5FE069812A94D
:103380000880FFE712A8008877A90988884200DB37
:10339000F3E012A800880A21B0FBF1F25143411A70
:1033A0001820484310A90880109818300FA90880E9
:1033B00010980EA90880FFE70EA800880FA90988B9
:1033C00088420EDAFFE70EA8028800210091EF2361
:1033D0001046FDF7AFFFFFE70E98401C0EA90880CE
:1033E000EAE711A900200880FFE711A8008831282A
:1033F00048DCFFE711A90888C30013A8C218948805
:10340000C25A121BC2520988C900405E002833D537
:10341000FFE711A804900088C20013A90591EF20CE
:103420008852FCF77FFE049A0599F02390FBF3F491
:103430006343C01A1288D20089184880FCF772FED4
:10344000049A0599C3179B0FC31803240394A3433D
:10345000C01A401C1288D20089188880FCF762FECE
:10346000039B049A059990FBF3F46343C01A1288F6
:10347000D2008918C880FFE7FFE71198401C11A906
:103480000880B2E711A900200880FFE711A8008892
:10349000312869DCFFE711A80088C10013A8405E4D
:1034A00010A9098888420ADBFFE711A80088C1003B
:1034B00013A8405E0FA90988884201DBFFE74EE0B0
:1034C00011A90888C20013A8825A0CAB1A800A8876
:1034D000D200821852880BAB1A800988C9004018A4
:1034E000C088029020B1FFE70298012804D007E0CD
:1034F0000DA92448088007E00DA92148088003E0B1
:103500000DA921480880FFE70CA802880BA80388B2
:103510000DA80088009010461946FDF70BFF11A872
:103520000088C10013A84018C088022816D1FFE700
:1035300011A80088C10013A840180421405E032888
:103540000CDBFFE70C98401C0BA90B880F4900917E
:1035500082B210461946FDF7EDFEFFE7FFE711982E
:10356000401C11A9088091E7142000F011F8FFE732
:103570001298401C12A9088004E778B010BDC0461C
:10358000748C0000E7390000FFFF00008C5200003F
:1035900080B584B003900398FCF7CAFE1849096807
:1035A000FCF7D2FDFCF7CBFE33490860334900201D
:1035B0000860334901200860FFE731480068029045
:1035C000FFE7002002A90978C907019041B1FFE790
:1035D00002A8807801210840414248410190FFE75C
:1035E0000198C0070028E8D1FFE7254908680122B3
:1035F0009043086021490020086004B080BDC046A7
:103600004008002080B584B003900398FCF790FE3A
:1036100018490968FCF798FDFCF791FE1649086007
:10362000164900200860164901200860FFE7144889
:1036300000680290FFE7002002A90978C9070190FD
:1036400041B1FFE702A8807801210840414248418A
:103650000190FFE70198C0070028E8D1FFE708497B
:10366000086801229043086004490020086004B003
:1036700080BDC0464408002014E000E018E000E0EF
:1036800010E000E081B00146684601700078142126
:103690004143844A885801239843885001B07047B9
:1036A00081B00146684601700078142141437D4A8B
:1036B000885801231843885001B0704781B00146F3
:1036C00068460170007814214143764A88582023C7
:1036D0009843885001B07047B0B581B00146684644
:1036E00001700178142213464B436E4C1959012581
:1036F000A9431951017813464B430021195104780D
:10370000134663435E4C19510478134663435A4C85
:10371000195103785A43594BD150007880000F2239
:103720008240034908681043086001B0B0BDC0463C
:103730000400024083B002AA107001910A48006898
:103740000199127892009140084204D0FFE769463F
:103750000120087003E0694600200870FFE7684612
:10376000007803B07047C04600000240B0B584B096
:10377000024603A80090027002910078FFF782FFD2
:10378000009B029800681C7814210A4662433A4C58
:103790001051029880681C780A466243374C1051D9
:1037A0000298008A1C780A466243354C10511A78F8
:1037B000084650433B4A80580190019843F60074F4
:1037C000A043019002984468C5682C4340690443B3
:1037D00001982043019001981B7859438850029822
:1037E000007E01280AD1FFE703A800781421414395
:1037F0002C4A885840231843885009E003A80078D1
:1038000014214143274A8858402398438850FFE7B2
:103810000298407E01280AD1FFE703A8007814210E
:103820004143204A885880231843885009E003A860
:103830000078142141431B4A8858802398438850BC
:10384000FFE70298807E50B9FFE703A800781421B3
:103850004143144A885810239843885009E003A82C
:103860000078142141430F4A885810231843885088
:10387000FFE704B0B0BDC046100002401400024093
:103880000C00024081B001466846017000781421A6
:103890004143044A885844F200039843885001B0D9
:1038A0007047C0460800024081B000900099002097
:1038B000086000994860009908760099886000992E
:1038C000C860009948760099086100998876009947
:1038D000486101B0704786B0059004910392059845
:1038E000006A01900598406A009002A900200880B3
:1038F000FFE702A8008807281DD8FFE702A8018873
:103900000398C840C00780B1FFE702A8018889007A
:103910000F228A4001999143019104990088800007
:103920008140019808430190FFE7FFE70298401C9F
:1039300002A90880DDE702A908200880FFE702A8A5
:1039400000880F281FD8FFE702A801880398C84005
:10395000C00790B1FFE702A80188890020390F2233
:103960008A40009991430091049900888000203892
:103970008140009808430090FFE7FFE70298401C51
:1039800002A90880DBE7019805990862009805996B
:10399000486206B0704782B001900091009801998A
:1039A000886202B0704782B001900091009801993E
:1039B000886102B0704783B002900191684602703E
:1039C000007820B1FFE701980299886103E001982F
:1039D00002998862FFE703B0704783B002900191BB
:1039E000694600200870029800690199084204D0D5
:1039F000FFE769460120087003E06946002008706F
:103A0000FFE76846007803B0704787B006900591DD
:103A1000049203930698006801900698C06800908D
:103A200002A900200880FFE702A800880F282BD8F1
:103A3000FFE702A801880398C840C007F0B1FFE77C
:103A400002A801884900032213468B40019999433B
:103A50000191059B018849008B400199194301910F
:103A6000018849008A400099914300910499008897
:103A700040008140009808430090FFE7FFE702986C
:103A8000401C02A90880CFE70198069908600098B9
:103A90000699C86007B0704710B586B0059004A8B5
:103AA0000170039202930078012806D1FFE7029A81
:103AB000059948681043486005E0029A05994868EE
:103AC00090434860FFE705988068009001A90020B6
:103AD0000880FFE701A800880F281DD8FFE701A88C
:103AE00001880298C840C00780B1FFE701A801889B
:103AF000490003228A40009991430091039900886C
:103B000040008140009808430090FFE7FFE70198DC
:103B1000401C01A90880DDE700980599886006B07F
:103B200010BD80B582B001A9088001985A3000B25A
:103B300000F002F802B080BD84B002A90880FFE75F
:103B4000002102A8405E002807D5FFE7029840F256
:103B50006811401802A90880F2E7FFE7002102A8D7
:103B6000405E40F26811884207DBFFE7029840F2AE
:103B70006811401A02A90880F0E7002102A8405EFF
:103B8000B42812DCFFE7002102A8405E01900198F2
:103B9000B4210A1A424340F6A07050430F49891AD3
:103BA00090FBF1F003A9088011E0002102A8405E1B
:103BB000B43800900098B4210A1A42430648504392
:103BC0000649891A90FBF1F003A90880FFE700215C
:103BD00003A8405E04B0704760F0FFFF349E000011
:103BE00080B584B0002002900390FDF74FFF00F0F5
:103BF000E5FBFCF783FEFCF7C5FEFEF781F9FDF758
:103C00004BFE1049104840F20042FDF789FEFEF7D6
:103C10009DFB02990091F02308461A46FDF78AFBA6
:103C2000FFE70A4800680190012804D0FFE70198E7
:103C3000022803D005E0FCF71FFE02E0FDF752F872
:103C4000FFE7EEE73C0400202FF300000C0000200B
:103C500082B00190009101980099044A11400843F4
:103C600003490860BFF34F8F02B0704780FFFF1F0A
:103C700008ED00E03F490868012210430860FFE7B3
:103C80003C4800688007002801D4FFE7F8E7434973
:103C90000868032290430860364A1068134B1840A6
:103CA00010600868124A104008600868114A104005
:103CB0000860114908680F22904308600F4908689E
:103CC00040F20312904308600868012213049843ED
:103CD00008600868D307984308600949086890435A
:103CE00008600849002008607047C046FFFFF2FEE8
:103CF0000C00FF08FFFFC2772C100240301002407A
:103D0000341002400810024081B00146684601802C
:103D100000881F220146114001238B408109154A6A
:103D200088581843885001B07047C04681B001469A
:103D30006846018000881F220146114001238B4004
:103D400081090C4A88589843885001B07047C04692
:103D500081B001466846018000881F22014611405B
:103D600001238B408109034A88581843885001B0C9
:103D70007047C0460010024082B0019000200090C1
:103D8000064908680090009803229043009001982B
:103D9000009A1043086002B07047C0460410024009
:103DA00080B58AB0099008A8039001800020059092
:103DB000FDF7B9F905981021049101910090104A7E
:103DC000069228210F4B0793FDF730FD03990598C4
:103DD000099A0B882021019100906421FDF726FDAE
:103DE00004990598069A079B01910090B421FDF76C
:103DF0001DFD40F22030FFF7CBFB0AB080BDC0466E
:103E0000328200083084000081B000900099086878
:103E100040229043086001B0704782B0019068462C
:103E20000170007830B9FFE7019948680222104319
:103E3000486005E001994868012210434860FFE7A7
:103E400002B0704781B0009000990868402210438A
:103E5000086001B0704782B0019068460180019A05
:103E6000516841F200039943516002880199486802
:103E70001043486002B0704784B0039002A80180EC
:103E800001A9012008700398DF49884221D1FFE78A
:103E900002A8008840F2007188420BD0FFE702A818
:103EA000008840F60071884204D0FFE701A9002095
:103EB00008700DE0039A116840F60000814311601C
:103EC00002A90A8802400399086810430860FFE7C6
:103ED00010E0039840680090009840F60071884315
:103EE000009002A801880098084300900098039968
:103EF0004860FFE701A8007804B0704784B00390E1
:103F00000398C149884205D1FFE70398C068694614
:103F1000088016E00398406841F2000108400190D3
:103F2000019840B1FFE703980C30029002980078A6
:103F30006946088004E00398C06869460880FFE786
:103F4000FFE76846008804B07047C04684B003901D
:103F500002A801800398AC49884205D1FFE702A876
:103F600000880399C86015E00398406841F2000199
:103F700008400090009838B1FFE703980C3001909A
:103F800002980199087004E002A800880399C860AB
:103F9000FFE7FFE704B0704780B584B00390039853
:103FA00002900E4988420ED0FFE702989649884257
:103FB00011D1FFE740F20C300190FFF7C9FE0198E4
:103FC000FFF7B4FE08E006480090FFF7C1FE009836
:103FD000FFF7ACFE00E0FFE704B080BD0038004012
:103FE0000E04000085B00490039102A9002008701F
:103FF0000498806801900398009040F20021884264
:104000004DD0FFE7009840F20041884247D0FFE7DB
:10401000009840F20061884241D0FFE7009840F6E6
:104020000001884223D0FFE7009841F20001884256
:104030001DD0FFE7009841F60001884217D0FFE746
:10404000009801210907884206D0FFE70098012166
:104050004907884218D02FE001A84078C006800F99
:1040600020B9FFE702A901200870FFE72EE00398BE
:10407000019941F600021140884204D1FFE702A9EC
:1040800001200870FFE721E001A840784007800F79
:1040900020B9FFE702A901200870FFE716E00398A6
:1040A000019940F200621140884204D1FFE702A961
:1040B00001200870FFE709E001980399084204D045
:1040C000FFE702A901200870FFE7FFE702A80078D8
:1040D00005B0704786B00590049103A901200870CF
:1040E00000200290019000900598006802900298CC
:1040F00043F2400108400290059800680190019841
:1041000043F64001084001900598406800900098EF
:104110003C490840009005983B4988423DD1FFE763
:104120000498016802980843029004984168029834
:10413000084302900498C1680298084302900498CA
:104140000169029808430290049841690298084363
:10415000029004988169029808430290049880684C
:1041600040F2007188420BD0FFE70498806840F667
:104170000071884204D0FFE703A90020087008E01E
:104180000498816840F600000140029808430290BC
:10419000FFE702980599086029E0049801680198F2
:1041A00008430190049841680198084301900498DD
:1041B000C168019808430190049801690198084377
:1041C000019004984169019808430190049881691D
:1041D0000198084301900198059908600498816846
:1041E000009808430090009805994860FFE70599FA
:1041F000C86940F600029043C86103A8007806B081
:104200007047C046FFF000000030014081B00090D0
:1042100000990020086000994860009A40F20071FF
:1042200091600099C86000990861009948610099FF
:10423000886101B07047000087B0002006900590AB
:104240004C490868012210430860FFE70698401CAB
:10425000069048480068022108400590FFE705994C
:104260000020019041B9FFE7069840F20051401A42
:10427000411E88410190FFE70198C0070028E5D161
:10428000FFE73C4800688007002802D4FFE7FFE70B
:10429000FEE739490868022210430522904308606E
:1042A0003649009108689022104308600868086049
:1042B000086808600868324A104008600868314A97
:1042C000104308602B490868012212061043086059
:1042D000FFE7284800688001002801D4FFE7F8E7DD
:1042E0002649086804900498032290430490049897
:1042F00002221043049004980860FFE71F480068FA
:104300000C210840082801D0FFE7F7E7FFE700206D
:104310000390FFE703987F2805D8FFE7FFE703989E
:10432000401C0390F6E71549086802900298F022B5
:1043300090430290029880221043029002980860F5
:1043400000200390FFE703987F2805D8FFE7FFE7E9
:104350000398401C0390F6E7084908680290029809
:10436000F022904302900298029002980860FFE7C2
:1043700007B07047001002400020024004100240C5
:10438000FFFFC2F70000040880B5FFF755FF80BDAE
:1043900081B000900098042806D1FFE7064908681C
:1043A00004221043086005E0034908680422904392
:1043B0000860FFE701B0704710E000E080B504201E
:1043C000C043FFF7E5FF08480068FBF7B1FF074966
:1043D000FBF7F7FE01460648016000680549FBF758
:1043E000B3FE0549086080BD080000200024F44A9F
:1043F0004408002000007A44400800200FB410B5A3
:1044000004A9074B02AA039800F0ECF8044602A99D
:10441000002000F083FC204610BC08BC04B0184704
:104420001D4D00082021020C01D010211046020A67
:1044300001D010460839020901D01046091F820830
:1044400001D01046891E420801D0881E7047081A04
:10445000704702E008C8121F08C1002AFAD170474D
:104460007047002001E001C1121F002AFBD17047F4
:10447000F0B51FB486B00998089A030D00210243D5
:1044800014D05148514A1818504305141198012866
:1044900010981AD0281A401C00264D4F4D490096FE
:1044A00001910490002812DA444211E0119801248D
:1044B00049A3012801D11098C1430698119A84603C
:1044C0000360C26041600BB0F0BD4042E4E70446C7
:1044D000210500203F4A001C51410391029012E047
:1044E000E00707D032463B4601990098FCF7DEF81A
:1044F0000191009032463B4610461946FCF7D6F82B
:1045000006460F466410002CEAD10498039B00284D
:10451000029A0999089806DAFCF7C8F8019B009AF4
:10452000FCF7C4F805E0FBF78BFE019B009AFBF754
:1045300087FE04460E460022284BFCF73FF903D8BD
:104540000020C043014607E00022254B20463146AB
:10455000FBF7FAFFFCF712F9102409E0002C0ADB44
:104560000A220023FBF7FFFE079B30321A55641E18
:1045700002460A43F2D11122641C079B121B1C192C
:10458000119B012B03D0012308430ED10AE00843FD
:1045900004D0112010900020119077E71098151A80
:1045A0006D1E0BE01098824202DD00236D1C03E0BB
:1045B000824201DA00236D1E002BEED0069811997D
:1045C0008260C16030C07EE701FCFFFF104D00003B
:1045D000000014400000F03F300000000000F043F5
:1045E0000000E03FFFB597B00646002518E22528F9
:1045F00077D100242746FD49049400E00443761C4B
:1046000032780120203A90400842F7D130782A28A9
:104610000ED00222307801463039092916D8049983
:104620000A235943303940181443761C0490F1E7AB
:10463000189802C804911890002904DA0120400358
:1046400004434842049002200443761C30782E280C
:1046500014D1042004437078761C2A2809D11898B4
:10466000761C80C8189009E00A214F43303FC719D3
:10467000761C3078014630390929F5D930786C2814
:1046800010D006DC4C281AD068280ED06A2817D122
:1046900004E0742813D07A2812D110E001204005DC
:1046A00004430CE00121090501E0032109050C4345
:1046B0007178814203D1012000052418761C761CF4
:1046C0003078119066280BD013DC58287DD009DC97
:1046D00000287BD04528F6D04628F4D047281AD1A8
:1046E000A5E118E0632835D0642870D0652812D180
:1046F0009DE170286CD008DC6728F1D069287BD058
:104700006E280DD06F2806D1BAE073282ED07528F8
:1047100071D0782859D01A9A199990476D1C7EE16A
:104720006002400F022809D003280DD004281898F1
:1047300001680DD00D60001D189070E11898EA17FF
:1047400001680D604A60F6E7189801680D80F2E78D
:104750000D70F0E718986A4601781172001D1890E4
:104760000020507202A80090012005E0189802C8AD
:10477000189000200091C04361070DD5002101E091
:104780000199491C0191B94212DA8142F8DB009A81
:10479000515C0029F4D10BE0002101E00199491C92
:1047A00001918142FADB019A0099895C0029F5D1D7
:1047B000019904981A9B471A21463846199A00F025
:1047C00097FA0199401945180BE04FE02CE113E0EE
:1047D0004EE0009800990078491C00911A9A1999A6
:1047E00090470198401E0190401CF2D12146384666
:1047F0001A9B199A10E137E00A20002100900191DC
:104800006002410F022907D0189A01CA1892C217F4
:104810009446032908D00AE01898C01DC108C900B1
:1048200005C91891944607E000B2C21794460429BE
:1048300002D140B2C1178C4600226146944506DA87
:104840000A460021404291418C462D2102E021057B
:1048500004D52B216A461173012103E0E10701D041
:104860002021F7E7029155E00A200AE0102008E035
:10487000102000900021042004430191082703E048
:1048800008200021019100906002410F022907D009
:10489000189A01CA189200229446032908D008E009
:1048A0001898C01DC108C90005C91891944603E0B5
:1048B00080B2042900D1C0B200210291210729D57C
:1048C0001199702906D0009A1021019B4A401A4381
:1048D00005D00EE040216A461173012108E06146CF
:1048E000014306D030216A46117311995173022198
:1048F0000291009A0821019B4A401A430AD161465D
:10490000014301D1610705D530216A4611730121A8
:104910007F1E02911199582904D035A10E910DA93D
:104920000D910DE037A1F9E76146019B009AFBF775
:104930001AFD0E9B8C469B5C0D9A521E0D921370B5
:1049400061460143F0D10D9805A9081A2030019065
:10495000600703D501200004844300E0012701988B
:10496000874201DD381A00E00020019900904118CB
:10497000029809180498401A0490E00306D42146CE
:104980001A9B199A049800F0B3F94519002706E01C
:1049900003A81A9AC05D199990476D1C7F1C029854
:1049A0008742F5DBE0030CD521461A9B199A04983F
:1049B00000F09EF9451904E01A9A302019999047A1
:1049C0006D1C0099481E00900029F5DC08E00D9848
:1049D0000D990078491C0D911A9A199990476D1CF0
:1049E0000199481E01900029F1DC63E109280100CA
:1049F0003031323334353637383961626364656655
:104A00000000000030313233343536373839414216
:104A1000434445460000000000F05AF94519761C51
:104A20003078002800D0E2E528461BB0F0BD6007D2
:104A300000D406271898C01DC108C90048680A6834
:104A40000831C30FDB071891190001D09CA108E0C1
:104A5000210501D59BA104E0E10701D09AA100E066
:104A60009AA1430011985B08109165280CD006DCD0
:104A7000452809D046281DD0472841D141E0662865
:104A800018D067283CD13CE00021112F01DB112018
:104A900000E0781C0191009008A911A8FFF7E8FC3C
:104AA000139905910021119A15927F1C1298019774
:104AB000009150E00120C00703900120019008A957
:104AC000009711A8FFF7D4FC139A149905920022BD
:104AD000119B009212981593059A0192002901D01A
:104AE000104602E0791C40180190381A01D501984F
:104AF00004E04042401E0090781C0190C01B0290D0
:104B000043E0012F00DA01270021112F01DD1120E0
:104B100000E038460191009008A911A8FFF7A8FC11
:104B200013990591119A00211298159200910197FD
:104B300021070CD40599B94201DB019900E00191EC
:104B4000012904DD159A491E515C302906D0B8426E
:104B500001DA011D05DA0121029115E00199491ED2
:104B6000EDE7002805DC0099411800910199091A28
:104B700003E0019A411C914200DD01910099401A25
:104B8000401C02900120C0070390200706D4029920
:104B90000198814202DB0020C04302900020694658
:104BA000C87707AF012103980337C907884224D08B
:104BB000022011902B201290039800280CDA40421A
:104BC00003902D20129007E00A210398FBF722FEA4
:104BD00030317F1E039039701199481E11900029C1
:104BE000F2DC03980028EFD1791E12980870307813
:104BF000202108404530BF1E387006A8C01BC01DCC
:104C0000039010980078002800D0012001994118E5
:104C10000298C0170918039809180498401A401EF2
:104C20000490E00306D421461A9B199A049800F0D8
:104C30005FF8451910980078002803D01A9A19993E
:104C400090476D1CE00324D521461A9B199A0498BD
:104C500000F04EF845191CE00098002807DB009989
:104C60000598884203DD1598405C199901E019996F
:104C700030201A9A904700986D1C401C00900298B2
:104C8000401E0290002804D11A9A2E2019999047AC
:104C90006D1C0199481E01900029DDDC05E0387883
:104CA0001A9A7F1C199990476D1C0399481E03900E
:104CB0000029F4DC21461A9B199A0498ACE60000FE
:104CC0002D0000002B00000020000000000000006C
:104CD000F8B5044600251E461746880404D405E0AE
:104CE00039462020B0476D1C641EF9D52846F8BD12
:104CF000FFB50446002581B01E46C80301D5302704
:104D000000E02027880404D505E038460399B04721
:104D10006D1C641EF9D5284605B0F0BD0A68531C09
:104D20000B601070704700000000000000000000E1
:104D30000000000004040404040000040000141433
:104D40000A00000000000000000000000A0A1F0A1C
:104D50000A1F0A0A000000040E1505060C14150EA1
:104D60000400000012150D152E2C2A120000000060
:104D7000040A0A3615152916000002020100000077
:104D800000000000000010080804040404040808DF
:104D900010000204040808080808040402000000C7
:104DA0000004150E0E150400000000000008083E67
:104DB00008080000000000000000000000000202DF
:104DC000010000000000003F0000000000000000A3
:104DD0000000000000000002000000201010080881
:104DE00004040202010000000E1111111111110E34
:104DF00000000000040604040404040E0000000087
:104E00000E1111080402011F000000000E11100C09
:104E10001010110E00000000080C0C0A091F081CDD
:104E2000000000001F01010F1110110E0000000012
:104E30000C12010D1311110E000000001E100808C5
:104E400004040404000000000E11110E1111110ED3
:104E5000000000000E1111191610090600000000D4
:104E60000000040000000004000000000000000436
:104E700000000004040000001008040202040810EE
:104E80000000000000003F003F00000000000000A4
:104E90000204081010080402000000000E1111089E
:104EA00004040004000000001C22292D2D1D221CDA
:104EB0000000000004040C0A0A1E12330000000067
:104EC0000F12120E1212120F000000001E1101012B
:104ED0000101110E000000000F1212121212120F27
:104EE000000000001F120A0E0A02121F000000003C
:104EF0001F120A0E0A020207000000001C12010124
:104F00003911120C000000003312121E121212335B
:104F1000000000001F0404040404041F000000003B
:104F20003E080808080808080907000037120A06A2
:104F30000A12123700000000070202020202223F9A
:104F4000000000003B1B1B1B151515350000000061
:104F50003B1216161A1A1217000000000E1111113A
:104F60001111110E000000000F12120E02020207B2
:104F7000000000000E1111111117190E1800000089
:104F80000F12120E0A121237000000001E11010645
:104F90000810110F000000001F1504040404040E83
:104FA00000000000331212121212120C0000000056
:104FB0003312120A0A0C040400000000151515151E
:104FC0000E0A0A0A000000001B0A0A04040A0A1B4F
:104FD000000000001B0A0A0A0404040E000000007E
:104FE0001F0908040402121F00001C040404040426
:104FF000040404041C00000202040404080808104D
:1050000010000E0808080808080808080E00040A1E
:105010000000000000000000000000000000000090
:1050200000000000003F020400000000000000003B
:10503000000000000000000C121C123C00000003E5
:105040000202020E1212120E000000000000001CEC
:105050001202120C000000181010101C1212123C48
:10506000000000000000000C121E021C00000018CE
:105070002404041E0404041E000000000000003C80
:10508000120C021C221C00030202020E1212123722
:1050900000000004040000060404040E00000008E0
:1050A0000800000C08080808080700030202021A9A
:1050B0000A060A1300000007040404040404041F81
:1050C000000000000000000F15151515000000007D
:1050D0000000000F12121237000000000000000C48
:1050E0001212120C000000000000000F1212120E2B
:1050F000020700000000001C1212121C10380000F1
:105100000000001B06020207000000000000001E55
:10511000020C101E000000000004041E0404041C05
:10512000000000000000001B1212123C00000000F2
:105130000000001B0A0A0404000000000000001523
:10514000150E0A0A000000000000001B0A040A1BDA
:10515000000000000000003312120C0804030000DD
:105160000000001E0804041E000018080808080CAF
:1051700008080808180008080808080808080808A7
:1051800008080604040404080404040406001609BC
:10519000000000000000000000000000000000000F
:1051A000000000000000000000000000181818189F
:1051B000180808080800181800000000003C242403
:1051C0000000000000000000000000000044242453
:1051D000FF242424FF22121200000000083C2E6A43
:1051E0000E0C38686A6A2E1C08000000002625157F
:1051F0001D1668585454526200000000001C3434DC
:10520000140C0E4A5363F61C000000000008080846
:1052100000000000000000000000000040203010EE
:10522000101010101010202040000000020404088C
:105230000808080808080406030000000018187E83
:10524000183C5A1818000000000000000000000878
:105250000808FF0808080000000000000000000027
:105260000000000000000606020000000000000030
:1052700000007F00000000000000000000000000AF
:105280000000000000000606000000000040202092
:10529000101008080404020100000000003C26422F
:1052A0004242424242623418000000000010181EC0
:1052B0001A1818181818181800000000003C664248
:1052C0006020301008047E7E00000000003C664232
:1052D0006030306040422618000000000020303866
:1052E00028242622FF20202000000000007C060247
:1052F0000A3E62404063361C00000000001018089F
:105300000C3E46C2C242663C00000000007E406087
:105310002030101808080C0C00000000003C62420D
:10532000623E3E424342663C00000000003C624355
:105330004363363C1018080C000000000000000019
:105340000018000000001818000000000000000015
:1053500000180000000018180800000000C06030AD
:10536000180C060C183060C000000000000000009F
:10537000FE0000FE000000000000000000060C1807
:105380003060C06030180C0600000000003C66620F
:10539000603010080000080800000000003C42795E
:1053A000696555555529023C000000000018181881
:1053B0003C24243E664242C300000000003E62429C
:1053C000423E3E4242427E1E00000000003C6642D9
:1053D0004202024242466C3800000000001E326267
:1053E0004242424242623E0E00000000007E020243
:1053F000027E7E0202027E7E00000000007E02022B
:1054000002023E020202020200000000003C66426C
:105410004202727242466C58000000000042424252
:10542000427E7E42424242420000000000181818AC
:1054300018181818181818180000000000404040EC
:105440004040404042623E1C0000000000622212C8
:105450001A0E1E12322262C2000000000002020276
:105460000202020202027E7E000000000066666602
:1054700066765E5A5A5A5A4A000000000042464672
:105480004E4A5A527262626200000000003C66425C
:10549000424343434262261800000000003E62423D
:1054A00042427E0E0202020200000000003C664200
:1054B000424343435272267800000000003E62429D
:1054C00042623E123222624200000000003C6662EC
:1054D000060C38604242663C00000000007E18184E
:1054E0001818181818181818000000000042424236
:1054F000424242424242663C000000000043426297
:10550000662624341C1818180000000000D95B5BC4
:105510005A5A565666662626000000000062262467
:105520001C18181C34266243000000000043622649
:10553000341C18181818181800000000007E60208D
:105540003010080C04067E7E000000780808080869
:105550000808080808080808780000000002040489
:1055600004080810101020204040001E10101010D9
:1055700010101010101010101E0007050700F8047E
:1055800004040404040404F8000000000000000007
:10559000000000000000000000FF000C18100000D8
:1055A00000000000000000000000000000000000FB
:1055B000003C62706E62725C000000000002020239
:1055C000023E62424262661A0000000000000000D3
:1055D000003C62020242661C0000000000404040A5
:1055E000407E62424262665C0000000000000000F3
:1055F000003C627E02426638000000000078080825
:10560000087E0808080808080000000000000000E4
:10561000007C22223C023E62423E00000002020266
:10562000027A46424242424200000000001818003E
:105630000018181818181818000000000030300062
:105640000030303030303030321E000000020202B4
:1056500002321A1E162262420000000000181818BA
:10566000181818181818181800000000000000007A
:1056700000EFDBDBDBDBDBDB000000000000000019
:10568000007A464242424242000000000000000010
:10569000003C624242426618000000000000000028
:1056A000003E62424262661A0202000000000000F0
:1056B000007E62424262665C4040000000000000E2
:1056C00000340C0404040404000000000000000086
:1056D000003C66063842663C0000000000000808F6
:1056E000083F08080808487000000000000000009B
:1056F000004242424262765C00000000000000006E
:1057000000426624241C181800000000000000005D
:1057100000DB5B5A566626240000000000000000F3
:1057200000263418183C264200000000000000004B
:1057300000426624241C1818080E00000000000017
:10574000007E30100804067E0000006030303030EB
:105750003030103030303030200018181818181839
:105760001818181818181818181800060404040433
:1057700004040804040404040400044E720000003D
:105780000000000000000000000000000000000019
:105790000000000000000000000000000000000009
:1057A00000000000000000000000000000000000F9
:1057B00000000000000000000000000000000000E9
:1057C00060006000600060006000600060006000D9
:1057D00060006000600060002000000000007000B9
:1057E00070007000000000000000000000000000D9
:1057F00000009801980198019801980000000000AD
:105800000000000000000000000000000000000098
:105810000000000000000000000000000000000088
:10582000000010031003100318031801FF07FF07FF
:10583000080188018801FF07FF078C008C008C009D
:105840008400C40000000000000000000000000010
:105850002000F000F801AC032C032C032C003C00CA
:105860007800E000E001A003260326032E03AC032A
:10587000FC01F000200020000000000000000000FB
:1058800000000C021E01120112019200920052004F
:105890005E002C03A00790049004D00488048804C0
:1058A0008407040300000000000000000000000066
:1058B00000007000F8008C008C018C00CC00780097
:1058C00038003C003E066606E602C60386038E07E5
:1058D000FC06700000000000000000000000000056
:1058E00000003000300030003000300000000000C8
:1058F00000000000000000000000000000000000A8
:105900000000000000000000000000000000000097
:105910000006000380018000C000C000400040007D
:10592000600060006000400040004000C000800057
:1059300080010003000600000000000000000200DB
:1059400006000C00080018001000300020002000A5
:10595000200020002000200020003000100018004F
:1059600008000C000600020000000000000000001B
:1059700000006000600062046606FE07F801F000A7
:10598000FC036E076204600060000000000000007D
:105990000000000000000000000000000000000007
:1059A0000000000000000000600060006000600077
:1059B0006000FF07600060006000600060000000A1
:1059C00000000000000000000000000000000000D7
:1059D00000000000000000000000000000000000C7
:1059E00000000000000000000000000000000C00AB
:1059F0000C000C0008000400000000000000000083
:105A00000000000000000000000000000000000096
:105A10000000FF0700000000000000000000000080
:105A20000000000000000000000000000000000076
:105A30000000000000000000000000000000000066
:105A400000000000000000000000000000000C004A
:105A50000C000C000000000000000000000000002E
:105A60000004000400020002000180018000C00068
:105A70004000200020001000100008000C0004006E
:105A8000060002000000000000000000000000000E
:105A900000007000F8019C030C03060306060606CE
:105AA0000606060606060606060606030C039C0303
:105AB000F80160000000000000000000000000008D
:105AC000000040006000700078006C00640060001E
:105AD00060006000600060006000600060006000C6
